:08000000803102288731E82F4E
:10062E008431ED248331172B20000D148D140D15FC
:10063E008D150800FE0012001E00FE0B222B00344A
:10064E00003083316323833101308331632308000B
:10065E007A08F1007908F000E830F2000330F30078
:10066E00853137257108FD007008FC0008007830D0
:10067E00210099009801220096012F3021008C0054
:10068E008D01F0308E0023008C018D012100951319
:10069E00080070087104031908000630F2003030AB
:1006AE00890B572BF20B572B00327008FF3EF000D0
:1006BE00FF30713DF100502BF20020008D117208B9
:1006CE0083317723833120000D151530F100C630AC
:1006DE00890B6F2BF10B6F2B003220000D110800D0
:1006EE00F000701C7D2B20000D167F2B20000D12AC
:1006FE00F01C832B8D16842B8D12701D882B0D17DD
:10070E00892B0D13F01D8D2B8D1708008D130800EE
:10071E00F801F9017508780784007608793D85009F
:10072E001200031908007508780784007608793DD1
:10073E00850000088331C92383310130F80700306A
:10074E00F93D912B20008C1EB92BF301F30A0230D8
:10075E008431252483310030F5008830F600833152
:10076E008F23833120008C1A0800F301F30A023024
:10077E008431252483310B30F5008830F600833127
:10078E008F230800F40074080F39F1007108F2008D
:10079E007408F039F1007108F30020008D1573080C
:1007AE00F1000430F136890BD92B71088331772390
:1007BE00833120000D153530890BE32B000020000E
:1007CE000D11720883317723833120000D153530DA
:1007DE00890BEF2B000020000D1108000D340034A2
:1007EE000534003407340034063400340E3400343B
:1007FE000A3400340B340034093400340934003424
:10080E000B3400340A3400340E3400340634003411
:10081E0007340034053400340D340034F63400341B
:10082E00FA340034F9340034F5340034F53400343D
:10083E00F9340034FA340034F6340034F60076031A
:10084E00031D452C73087F3EF4007408F9007908E7
:10085E00F4000430F436890B312C7408F500750859
:10086E00F70079080F39F4007408F800770883311F
:10087E0063238431780883316323080002307606BF
:10088E00031D08007308BF3EF4007408F9007908D0
:10089E00F4000430F436890B512C7408F5007508F9
:1008AE00F70079080F39F4007408F80077088331DF
:1008BE006323843178088331632308000030833149
:1008CE00772384316830F300E430890B6C2CF30B02
:1008DE006C2C003203308331632384311A30F300E1
:1008EE00F830890B782CF30B782C003203308331DF
:1008FE00632384313A30F3002330890B842CF30BBD
:10090E00842C000003308331632384310230833121
:10091E006323843102308331632384310830833181
:10092E006323843100308331632384310C3083316F
:10093E006323843100308331632384310630833165
:10094E006323080020000E1B8E1BC02C0130D60026
:10095E000030D7000A30FA007A08F30001308431F3
:10096E00252484314030F5008830F60083318F2302
:10097E0008000E1F8E1FD62C0230D6000030D70076
:10098E000A30FA007A08F3000130843125248431CC
:10099E003930F5008830F60083318F2308000E1FA2
:1009AE0008008E1F08000330D6000030D7000A3032
:1009BE00FA007A08F3000130843125248431463060
:1009CE00F5008830F60083318F23080083313E23F3
:1009DE00843184316524843183311B238431833106
:1009EE00272384318531882584318431A9248431AB
:1009FE008331A92384317D08FA007C08F900833104
:100A0E002F23843120000C1D302D20005708FB00B1
:100A1E005608FA0086314826843120005708FB001C
:100A2E005608FA008531DA25843120005708FB007C
:100A3E005608FA0087314F27843120005708FB00F3
:100A4E005608FA008631B6268431FF3020008D001C
:100A5E00092D83312723843120000C190800332DF2
:100A6E00F601F11F412DF009F109F00A0319F10AFF
:100A7E00F601F60AF31F4C2DF209F309F20A0319D7
:100A8E00F30A0130F4007408F606F701F801700855
:100A9E00710403197B2DF501F50AF11B602D013050
:100AAE00F035F10D890B572D0130F4007408F50760
:100ABE00542D0130F735F80D890B612D7108730235
:100ACE00031D6B2D70087202031C722D7008F2024A
:100ADE007108F33B77140130F136F00C890B732D4E
:100AEE000130F502031D602D76080319832DF709D9
:100AFE00F809F70A0319F80A7808F1007708F000E8
:100B0E00080020000E1E8E1A9D2D6430FC00003051
:100B1E00FD00F301F30A01308431252485311530AF
:100B2E00F5008830F60083318F2308000E1A8E1AD6
:100B3E00B12D9630FC000030FD00F301F30A0130B8
:100B4E008431252485312730F5008830F600833135
:100B5E008F2308000E1E8E1EC52DC830FC000030DF
:100B6E00FD00F301F30A01308431252485311E3056
:100B7E00F5008830F60083318F2308000E1E080022
:100B8E008E1E0800FA30FC000030FD00F301F30A5F
:100B9E0001308431252485313030F5008830F6005F
:100BAE0083318F2308007A037B04031D112E20004E
:100BBE00D901DA0120008C1808008C1A080059356A
:100BCE00403E8600870101088D007D08F1007C08FB
:100BDE00F00083315023853120005908013ED900A1
:100BEE0000305A3DDA00043059065A04031D012E16
:100BFE00D901DA010D30D8005808F30002308431E3
:100C0E00252485315030F5008830F60083318F234E
:100C1E008531E12D0230FA000030FB002000DB01AF
:100C2E00DC0120008C1808008C1A08005B35203E71
:100C3E008600870101088D007D08F1007C08F00018
:100C4E0083315023853120005B08013EDB000030EC
:100C5E005C3DDC0008305B065C04031D382EDB01B6
:100C6E00DC010D30D8005808F30002308431252401
:100C7E0085315030F5008830F60083318F23853171
:100C8E00182E7A037B04031D7F2E2000D901DA0172
:100C9E0020000C1808008C1A08005935483E8600B2
:100CAE00870101088D007D08F1007C08F00083317A
:100CBE005023863120005908013ED90000305A3D9C
:100CCE00DA00043059065A04031D6F2ED901DA01D9
:100CDE000D30D8005808F3000230843125248631B7
:100CEE004C30F5008830F60083318F2386314F2E3D
:100CFE000230FA000030FB002000DB01DC01200096
:100D0E000C1808008C1A08005B35303E86008701EF
:100D1E0001088D007D08F1007C08F000833150231E
:100D2E00863120005B08013EDB0000305C3DDC00BC
:100D3E0008305B065C04031DA62EDB01DC010D30C2
:100D4E00D8005808F30002308431252486314C3007
:100D5E00F5008830F60083318F238631862E2000F1
:100D6E008C1808008C1E08007A037B04031D042FC8
:100D7E00D901DA01D201D30120000D1BF82E20007B
:100D8E005935403E8600870101088D007D08F1002F
:100D9E007C08F00083315023863120005908013E33
:100DAE00D90000305A3DDA005208013ED200003020
:100DBE00533DD300043059065A04031DE82ED901C1
:100DCE00DA010D30D8005808F300023084312524A2
:100DDE0086315030F5008830F60083318F2386310E
:100DEE00C32E5308803AD80080305802031D012FBD
:100DFE00C930520203180800C62E02307A067B0450
:100E0E00031D08002000DB01DC01D201D30120000C
:100E1E000D1B432F20005B35203E86008701010805
:100E2E008D007D08F1007C08F0008331502386315F
:100E3E0020005B08013EDB0000305C3DDC00520808
:100E4E00013ED2000030533DD30008305B065C04F7
:100E5E00031D332FDB01DC010D30D8005808F300E1
:100E6E0002308431252486315030F5008830F6006A
:100E7E0083318F2386310E2F5308803AD80080306D
:100E8E005802031D4C2FC930520203180800112FAF
:100E9E0020000C1808008C1E08007A037B04031D2A
:100EAE009D2FD901DA01D201D30120000D1B912F04
:100EBE0020005935483E8600870101088D007D08C7
:100ECE00F1007C08F000833150238731200059084F
:100EDE00013ED90000305A3DDA005208013ED200E0
:100EEE000030533DD300043059065A04031D812FA0
:100EFE00D901DA010D30D8005808F30002308431E0
:100F0E00252487314C30F5008830F60083318F234D
:100F1E0087315C2F5308803AD80080305802031D69
:100F2E009A2FC9305202031808005F2F02307A063A
:100F3E007B04031D08002000DB01DC01D201D3017C
:100F4E0020000D1BDC2F20005B35303E8600870114
:100F5E0001088D007D08F1007C08F00083315023DC
:100F6E00873120005B08013EDB0000305C3DDC0079
:100F7E005208013ED2000030533DD30008305B06CC
:100F8E005C04031DCC2FDB01DC010D30D8005808AA
:100F9E00F30002308431252487314C30F50088303F
:100FAE00F60083318F238731A72F5308803AD8005C
:100FBE0080305802031DE52FC93052020318080075
:100FCE00AA2FF53084008330850020308600003053
:100FDE008700303083312123FC01FD01D001D10186
:100FEE00D201D301D401D501D601D701200083311E
:100FFE00172B533445344E3453344F3452345F34FC
:10100E005934453453340034533445344E34533408
:10101E004F3452345F344E344F34003456343D34F2
:10102E0031343034303470347034733400345634D8
:10103E003D343234303430347034703473340034E0
:10104E0056343D3431343534303470347034733476
:10105E00003456343D3432343534303470347034D8
:10106E00733400344D343D344D34503435343034D3
:10107E0000344D343D344E3450344D3400344D3400
:10108E003D34463441344E340034433457342E34D8
:0A109E000034433443345734003467
:020000040001F9
:04000E0084FFFFDE8E
:00000001FF
